{
  "contractName": "MultiplePartyContract",
  "abi": [
    {
      "inputs": [
        {
          "internalType": "string",
          "name": "_contractText",
          "type": "string"
        },
        {
          "internalType": "address[]",
          "name": "_signatoryAddresses",
          "type": "address[]"
        }
      ],
      "payable": false,
      "stateMutability": "nonpayable",
      "type": "constructor"
    },
    {
      "anonymous": false,
      "inputs": [
        {
          "indexed": false,
          "internalType": "string",
          "name": "message",
          "type": "string"
        },
        {
          "indexed": false,
          "internalType": "bool",
          "name": "canceled",
          "type": "bool"
        },
        {
          "indexed": false,
          "internalType": "uint256",
          "name": "timestamp",
          "type": "uint256"
        }
      ],
      "name": "contractCanceled",
      "type": "event"
    },
    {
      "anonymous": false,
      "inputs": [
        {
          "indexed": false,
          "internalType": "string",
          "name": "message",
          "type": "string"
        },
        {
          "indexed": false,
          "internalType": "bool",
          "name": "complete",
          "type": "bool"
        },
        {
          "indexed": false,
          "internalType": "uint256",
          "name": "timestamp",
          "type": "uint256"
        }
      ],
      "name": "contractComplete",
      "type": "event"
    },
    {
      "anonymous": false,
      "inputs": [
        {
          "indexed": false,
          "internalType": "string",
          "name": "contractHash",
          "type": "string"
        },
        {
          "indexed": false,
          "internalType": "uint256",
          "name": "timestamp",
          "type": "uint256"
        }
      ],
      "name": "contractCreated",
      "type": "event"
    },
    {
      "anonymous": false,
      "inputs": [
        {
          "indexed": true,
          "internalType": "address",
          "name": "signatory",
          "type": "address"
        },
        {
          "indexed": false,
          "internalType": "bool",
          "name": "has_signed",
          "type": "bool"
        },
        {
          "indexed": false,
          "internalType": "uint256",
          "name": "timestamp",
          "type": "uint256"
        }
      ],
      "name": "signature",
      "type": "event"
    },
    {
      "payable": false,
      "stateMutability": "nonpayable",
      "type": "fallback"
    },
    {
      "constant": true,
      "inputs": [],
      "name": "STATE",
      "outputs": [
        {
          "internalType": "enum SignSafeContract.sign_safe_contract_state",
          "name": "",
          "type": "uint8"
        }
      ],
      "payable": false,
      "stateMutability": "view",
      "type": "function"
    },
    {
      "constant": false,
      "inputs": [
        {
          "internalType": "string",
          "name": "kontract",
          "type": "string"
        }
      ],
      "name": "confirmContract",
      "outputs": [
        {
          "internalType": "bool",
          "name": "",
          "type": "bool"
        }
      ],
      "payable": false,
      "stateMutability": "nonpayable",
      "type": "function"
    },
    {
      "constant": true,
      "inputs": [],
      "name": "contract_cancelled_date",
      "outputs": [
        {
          "internalType": "uint256",
          "name": "",
          "type": "uint256"
        }
      ],
      "payable": false,
      "stateMutability": "view",
      "type": "function"
    },
    {
      "constant": true,
      "inputs": [],
      "name": "contract_completed_date",
      "outputs": [
        {
          "internalType": "uint256",
          "name": "",
          "type": "uint256"
        }
      ],
      "payable": false,
      "stateMutability": "view",
      "type": "function"
    },
    {
      "constant": true,
      "inputs": [],
      "name": "creation_date",
      "outputs": [
        {
          "internalType": "uint256",
          "name": "",
          "type": "uint256"
        }
      ],
      "payable": false,
      "stateMutability": "view",
      "type": "function"
    },
    {
      "constant": false,
      "inputs": [],
      "name": "getContractHash",
      "outputs": [
        {
          "internalType": "string",
          "name": "",
          "type": "string"
        }
      ],
      "payable": false,
      "stateMutability": "nonpayable",
      "type": "function"
    },
    {
      "constant": true,
      "inputs": [
        {
          "internalType": "address",
          "name": "",
          "type": "address"
        }
      ],
      "name": "hashMatch",
      "outputs": [
        {
          "internalType": "bool",
          "name": "",
          "type": "bool"
        }
      ],
      "payable": false,
      "stateMutability": "view",
      "type": "function"
    },
    {
      "constant": false,
      "inputs": [],
      "name": "ownerCancelContract",
      "outputs": [],
      "payable": false,
      "stateMutability": "nonpayable",
      "type": "function"
    },
    {
      "constant": true,
      "inputs": [
        {
          "internalType": "address",
          "name": "",
          "type": "address"
        }
      ],
      "name": "signatories",
      "outputs": [
        {
          "internalType": "bool",
          "name": "",
          "type": "bool"
        }
      ],
      "payable": false,
      "stateMutability": "view",
      "type": "function"
    },
    {
      "constant": true,
      "inputs": [
        {
          "internalType": "address",
          "name": "",
          "type": "address"
        }
      ],
      "name": "signature_timestamps",
      "outputs": [
        {
          "internalType": "uint256",
          "name": "",
          "type": "uint256"
        }
      ],
      "payable": false,
      "stateMutability": "view",
      "type": "function"
    },
    {
      "constant": true,
      "inputs": [
        {
          "internalType": "address",
          "name": "",
          "type": "address"
        }
      ],
      "name": "who_has_signed",
      "outputs": [
        {
          "internalType": "bool",
          "name": "",
          "type": "bool"
        }
      ],
      "payable": false,
      "stateMutability": "view",
      "type": "function"
    },
    {
      "constant": false,
      "inputs": [
        {
          "internalType": "uint256",
          "name": "_numParties",
          "type": "uint256"
        }
      ],
      "name": "setNumberOfParties",
      "outputs": [],
      "payable": false,
      "stateMutability": "nonpayable",
      "type": "function"
    },
    {
      "constant": false,
      "inputs": [
        {
          "internalType": "address",
          "name": "_newSignatory",
          "type": "address"
        }
      ],
      "name": "addSignatory",
      "outputs": [],
      "payable": false,
      "stateMutability": "nonpayable",
      "type": "function"
    },
    {
      "constant": false,
      "inputs": [
        {
          "internalType": "address",
          "name": "_signatory",
          "type": "address"
        }
      ],
      "name": "deleteSignatory",
      "outputs": [],
      "payable": false,
      "stateMutability": "nonpayable",
      "type": "function"
    },
    {
      "constant": false,
      "inputs": [],
      "name": "contractReadyForSignatures",
      "outputs": [],
      "payable": false,
      "stateMutability": "nonpayable",
      "type": "function"
    },
    {
      "constant": false,
      "inputs": [],
      "name": "sign",
      "outputs": [],
      "payable": false,
      "stateMutability": "nonpayable",
      "type": "function"
    },
    {
      "constant": false,
      "inputs": [],
      "name": "cancelContract",
      "outputs": [],
      "payable": false,
      "stateMutability": "nonpayable",
      "type": "function"
    }
  ],
  "bytecode": "0x60806040526000600560006101000a81548160ff0219169083151502179055503480156200002c57600080fd5b506040516200188838038062001888833981810160405260408110156200005257600080fd5b81019080805160405193929190846401000000008211156200007357600080fd5b838201915060208201858111156200008a57600080fd5b8251866001820283011164010000000082111715620000a857600080fd5b8083526020830192505050908051906020019080838360005b83811015620000de578082015181840152602081019050620000c1565b50505050905090810190601f1680156200010c5780820380516001836020036101000a031916815260200191505b50604052602001805160405193929190846401000000008211156200013057600080fd5b838201915060208201858111156200014757600080fd5b82518660208202830111640100000000821117156200016557600080fd5b8083526020830192505050908051906020019060200280838360005b838110156200019e57808201518184015260208101905062000181565b50505050905001604052505050336000806101000a81548173ffffffffffffffffffffffffffffffffffffffff021916908373ffffffffffffffffffffffffffffffffffffffff1602179055506001600a60006101000a81548160ff021916908360038111156200020b57fe5b02179055506000600c819055508051600d819055508051600b8190555042600181905550816004908051906020019062000247929190620003be565b506001600560006101000a81548160ff02191690831515021790555060008090505b8151811015620002ed576001600760008484815181106200028657fe5b602002602001015173ffffffffffffffffffffffffffffffffffffffff1673ffffffffffffffffffffffffffffffffffffffff16815260200190815260200160002060006101000a81548160ff021916908315150217905550808060010191505062000269565b507f5d34c9bd08c78fa29997389261d01ebd185b849600cfa880d4281974623dff5f60046001546040518080602001838152602001828103825284818154600181600116156101000203166002900481526020019150805460018160011615610100020316600290048015620003a75780601f106200037b57610100808354040283529160200191620003a7565b820191906000526020600020905b8154815290600101906020018083116200038957829003601f168201915b5050935050505060405180910390a150506200046d565b828054600181600116156101000203166002900490600052602060002090601f016020900481019282601f106200040157805160ff191683800117855562000432565b8280016001018555821562000432579182015b828111156200043157825182559160200191906001019062000414565b5b50905062000441919062000445565b5090565b6200046a91905b80821115620004665760008160009055506001016200044c565b5090565b90565b61140b806200047d6000396000f3fe608060405234801561001057600080fd5b506004361061010b5760003560e01c80636ab57407116100a2578063ad983cea11610071578063ad983cea14610362578063b63fd73f146103ba578063c486456c1461048d578063ef1ab03c146104b9578063f1861bef146105155761010b565b80636ab57407146102825780637932f3721461028c5780638a12177f146102e85780639c9b6736146103445761010b565b80632b68bb2d116100de5780632b68bb2d1461020c5780632ca151221461021657806354e2ecf0146102205780636a2f7d7e1461023e5761010b565b80630770e2381461010d5780631cc3868c146101905780631f7c75ed146101be57806321dd877f146101c8575b005b610115610533565b6040518080602001828103825283818151815260200191508051906020019080838360005b8381101561015557808201518184015260208101905061013a565b50505050905090810190601f1680156101825780820380516001836020036101000a031916815260200191505b509250505060405180910390f35b6101bc600480360360208110156101a657600080fd5b81019080803590602001909291905050506105f5565b005b6101c661068a565b005b61020a600480360360208110156101de57600080fd5b81019080803573ffffffffffffffffffffffffffffffffffffffff169060200190929190505050610812565b005b610214610962565b005b61021e610aed565b005b610228610cf9565b6040518082815260200191505060405180910390f35b6102806004803603602081101561025457600080fd5b81019080803573ffffffffffffffffffffffffffffffffffffffff169060200190929190505050610cff565b005b61028a610e3e565b005b6102ce600480360360208110156102a257600080fd5b81019080803573ffffffffffffffffffffffffffffffffffffffff169060200190929190505050610f1f565b604051808215151515815260200191505060405180910390f35b61032a600480360360208110156102fe57600080fd5b81019080803573ffffffffffffffffffffffffffffffffffffffff169060200190929190505050610f3f565b604051808215151515815260200191505060405180910390f35b61034c610f5f565b6040518082815260200191505060405180910390f35b6103a46004803603602081101561037857600080fd5b81019080803573ffffffffffffffffffffffffffffffffffffffff169060200190929190505050610f65565b6040518082815260200191505060405180910390f35b610473600480360360208110156103d057600080fd5b81019080803590602001906401000000008111156103ed57600080fd5b8201836020820111156103ff57600080fd5b8035906020019184600183028401116401000000008311171561042157600080fd5b91908080601f016020809104026020016040519081016040528093929190818152602001838380828437600081840152601f19601f820116905080830192505050505050509192919290505050610f7d565b604051808215151515815260200191505060405180910390f35b6104956111e4565b604051808260038111156104a557fe5b60ff16815260200191505060405180910390f35b6104fb600480360360208110156104cf57600080fd5b81019080803573ffffffffffffffffffffffffffffffffffffffff1690602001909291905050506111f7565b604051808215151515815260200191505060405180910390f35b61051d611217565b6040518082815260200191505060405180910390f35b606060011515600560009054906101000a900460ff1615151461055557600080fd5b60048054600181600116156101000203166002900480601f0160208091040260200160405190810160405280929190818152602001828054600181600116156101000203166002900480156105eb5780601f106105c0576101008083540402835291602001916105eb565b820191906000526020600020905b8154815290600101906020018083116105ce57829003601f168201915b5050505050905090565b6000600381111561060257fe5b600a60009054906101000a900460ff16600381111561061d57fe5b1461062757600080fd5b6000809054906101000a900473ffffffffffffffffffffffffffffffffffffffff1673ffffffffffffffffffffffffffffffffffffffff163373ffffffffffffffffffffffffffffffffffffffff161461068057600080fd5b80600b8190555050565b6000809054906101000a900473ffffffffffffffffffffffffffffffffffffffff1673ffffffffffffffffffffffffffffffffffffffff163373ffffffffffffffffffffffffffffffffffffffff16146106e357600080fd5b600260038111156106f057fe5b600a60009054906101000a900460ff16600381111561070b57fe5b141561071657600080fd5b6003600a60006101000a81548160ff0219169083600381111561073557fe5b02179055504260038190555060606040518060600160405280602f815260200161137e602f913990507f1a4dadf9792f72a969304169795e22020c43640fc479e3026d04822e7f93feda81600142604051808060200184151515158152602001838152602001828103825285818151815260200191508051906020019080838360005b838110156107d35780820151818401526020810190506107b8565b50505050905090810190601f1680156108005780820380516001836020036101000a031916815260200191505b5094505050505060405180910390a150565b6000600381111561081f57fe5b600a60009054906101000a900460ff16600381111561083a57fe5b1461084457600080fd5b6000809054906101000a900473ffffffffffffffffffffffffffffffffffffffff1673ffffffffffffffffffffffffffffffffffffffff163373ffffffffffffffffffffffffffffffffffffffff161461089d57600080fd5b600d600081548092919060010191905055506000600660008373ffffffffffffffffffffffffffffffffffffffff1673ffffffffffffffffffffffffffffffffffffffff16815260200190815260200160002060006101000a81548160ff0219169083151502179055506001600760008373ffffffffffffffffffffffffffffffffffffffff1673ffffffffffffffffffffffffffffffffffffffff16815260200190815260200160002060006101000a81548160ff02191690831515021790555050565b6001600381111561096f57fe5b600a60009054906101000a900460ff16600381111561098a57fe5b1461099457600080fd5b60011515600760003373ffffffffffffffffffffffffffffffffffffffff1673ffffffffffffffffffffffffffffffffffffffff16815260200190815260200160002060009054906101000a900460ff161515146109f157600080fd5b6003600a60006101000a81548160ff02191690836003811115610a1057fe5b021790555042600381905550606060405180606001604052806032815260200161134c6032913990507f1a4dadf9792f72a969304169795e22020c43640fc479e3026d04822e7f93feda81600142604051808060200184151515158152602001838152602001828103825285818151815260200191508051906020019080838360005b83811015610aae578082015181840152602081019050610a93565b50505050905090810190601f168015610adb5780820380516001836020036101000a031916815260200191505b5094505050505060405180910390a150565b60016003811115610afa57fe5b600a60009054906101000a900460ff166003811115610b1557fe5b14610b1f57600080fd5b60001515600660003373ffffffffffffffffffffffffffffffffffffffff1673ffffffffffffffffffffffffffffffffffffffff16815260200190815260200160002060009054906101000a900460ff16151514610b7c57600080fd5b60011515600760003373ffffffffffffffffffffffffffffffffffffffff1673ffffffffffffffffffffffffffffffffffffffff16815260200190815260200160002060009054906101000a900460ff16151514610bd957600080fd5b600c600081548092919060010191905055506001600660003373ffffffffffffffffffffffffffffffffffffffff1673ffffffffffffffffffffffffffffffffffffffff16815260200190815260200160002060006101000a81548160ff02191690831515021790555042600960003373ffffffffffffffffffffffffffffffffffffffff1673ffffffffffffffffffffffffffffffffffffffff168152602001908152602001600020819055503373ffffffffffffffffffffffffffffffffffffffff167f978d3a1fdb2369911f4fe03bf8010e5e585403ad9d5b936ace259bb5c9cd855f60014260405180831515151581526020018281526020019250505060405180910390a2600b54600c541415610cf757610cf661121d565b5b565b60015481565b60006003811115610d0c57fe5b600a60009054906101000a900460ff166003811115610d2757fe5b14610d3157600080fd5b6000809054906101000a900473ffffffffffffffffffffffffffffffffffffffff1673ffffffffffffffffffffffffffffffffffffffff163373ffffffffffffffffffffffffffffffffffffffff1614610d8a57600080fd5b600d6000815480929190600190039190505550600660008273ffffffffffffffffffffffffffffffffffffffff1673ffffffffffffffffffffffffffffffffffffffff16815260200190815260200160002060006101000a81549060ff0219169055600760008273ffffffffffffffffffffffffffffffffffffffff1673ffffffffffffffffffffffffffffffffffffffff16815260200190815260200160002060006101000a81549060ff021916905550565b60006003811115610e4b57fe5b600a60009054906101000a900460ff166003811115610e6657fe5b14610e7057600080fd5b6000809054906101000a900473ffffffffffffffffffffffffffffffffffffffff1673ffffffffffffffffffffffffffffffffffffffff163373ffffffffffffffffffffffffffffffffffffffff1614610ec957600080fd5b600d54600b5414610ed957600080fd5b60011515600560009054906101000a900460ff16151514610ef957600080fd5b6001600a60006101000a81548160ff02191690836003811115610f1857fe5b0217905550565b60076020528060005260406000206000915054906101000a900460ff1681565b60066020528060005260406000206000915054906101000a900460ff1681565b60035481565b60096020528060005260406000206000915090505481565b600060011515600560009054906101000a900460ff16151514610f9f57600080fd5b60016003811115610fac57fe5b600a60009054906101000a900460ff166003811115610fc757fe5b14610fd157600080fd5b60011515600760003373ffffffffffffffffffffffffffffffffffffffff1673ffffffffffffffffffffffffffffffffffffffff16815260200190815260200160002060009054906101000a900460ff1615151461102e57600080fd5b6004604051602001808280546001816001161561010002031660029004801561108e5780601f1061106c57610100808354040283529182019161108e565b820191906000526020600020905b81548152906001019060200180831161107a575b505091505060405160208183030381529060405280519060200120826040516020018082805190602001908083835b602083106110e057805182526020820191506020810190506020830392506110bd565b6001836020036101000a038019825116818451168082178552505050505050905001915050604051602081830303815290604052805190602001201415611182576001600860003373ffffffffffffffffffffffffffffffffffffffff1673ffffffffffffffffffffffffffffffffffffffff16815260200190815260200160002060006101000a81548160ff021916908315150217905550600190506111df565b6000600860003373ffffffffffffffffffffffffffffffffffffffff1673ffffffffffffffffffffffffffffffffffffffff16815260200190815260200160002060006101000a81548160ff021916908315150217905550600090505b919050565b600a60009054906101000a900460ff1681565b60086020528060005260406000206000915054906101000a900460ff1681565b60025481565b6001600381111561122a57fe5b600a60009054906101000a900460ff16600381111561124557fe5b1461124f57600080fd5b6002600a60006101000a81548160ff0219169083600381111561126e57fe5b02179055504260028190555060606040518060600160405280602a81526020016113ad602a913990507f84e69caf7216c089dd21cf216d9d3ee22f5101956624885502a58927d8697a3881600142604051808060200184151515158152602001838152602001828103825285818151815260200191508051906020019080838360005b8381101561130c5780820151818401526020810190506112f1565b50505050905090810190601f1680156113395780820380516001836020036101000a031916815260200191505b5094505050505060405180910390a15056fe4f6e65206f6620746865207369676e61746f72696573206861732072656a65637465642074686520636f6e74726163742e2054686520636f6e7472616374206f776e6572206861732063616e63656c6c65642074686520636f6e74726163742e20416c6c207369676e61746f726965732068617665207369676e65642074686520636f6e74726163742e20a265627a7a72315820af7a2ee3d7765149b6644a35dbb60d14fbdda85016c56aad245fb1fa5733078464736f6c63430005100032",
  "source": "pragma solidity ^0.5.16;\n\nimport \"./SignSafeContract.sol\";\n\ncontract MultiplePartyContract is SignSafeContract{\n\n    function () external {}\n\n    uint256 internal numberOfParties;\n    uint256 private numberOfSignatures;\n    uint256 private numberOfSignatoriesAdded;\n\n    modifier all_signatories_added(){\n        require(numberOfParties == numberOfSignatoriesAdded);\n        _;\n    }\n\n    constructor (string memory _contractText, address[] memory _signatoryAddresses) public{\n        contract_owner = msg.sender;\n        STATE = sign_safe_contract_state.PENDING;\n        numberOfSignatures = 0;\n        numberOfSignatoriesAdded = _signatoryAddresses.length;\n        numberOfParties = _signatoryAddresses.length;\n        creation_date = now;\n        contractHash = _contractText;\n        contractUploaded = true;\n        for(uint i = 0; i < _signatoryAddresses.length; i++){\n            signatories[_signatoryAddresses[i]] = true;\n        }\n        emit contractCreated(contractHash, creation_date);\n    }\n\n    function setNumberOfParties(uint _numParties) only_SETUP only_owner public {\n        numberOfParties = _numParties;\n    }\n\n    function addSignatory(address _newSignatory) only_SETUP only_owner public {\n        numberOfSignatoriesAdded++;\n        who_has_signed[_newSignatory] = false;\n        signatories[_newSignatory] = true;\n    }\n\n    function deleteSignatory(address _signatory) only_SETUP only_owner public {\n        numberOfSignatoriesAdded--;\n        delete who_has_signed[_signatory];\n        delete signatories[_signatory];\n    }\n\n    function contractReadyForSignatures() only_SETUP only_owner all_signatories_added only_contract_uploaded public {\n        STATE = sign_safe_contract_state.PENDING;\n    }\n\n    function sign() only_PENDING only_unsigned_signatories only_signatories public {\n        numberOfSignatures++;\n        who_has_signed[msg.sender] = true;\n        signature_timestamps[msg.sender] = now;\n        emit signature(msg.sender, true, now);\n        if(numberOfSignatures == numberOfParties){\n            completeContract();\n        }\n    }\n\n    function completeContract() only_PENDING private {\n        STATE = sign_safe_contract_state.COMPLETED;\n        contract_completed_date = now;\n        string memory emit_message = \"All signatories have signed the contract. \";\n        emit contractComplete(emit_message, true, now);\n    }\n\n    function cancelContract() only_PENDING only_signatories public {\n        STATE = sign_safe_contract_state.CANCELLED;\n        contract_cancelled_date = now;\n        string memory emit_message = \"One of the signatories has rejected the contract. \";\n        emit contractCanceled(emit_message, true, now);\n    }\n\n\n}\n\n\n\n",
  "sourcePath": "/Users/jared/Documents/CS481/TermProject/SolidityCompile/contracts/MultiplePartyContract.sol",
  "compiler": {
    "name": "solc",
    "version": "0.5.16+commit.9c3226ce.Emscripten.clang"
  },
  "schemaVersion": "3.0.23",
  "updatedAt": "2020-04-30T03:24:45.622Z",
  "devdoc": {
    "methods": {}
  },
  "userdoc": {
    "methods": {}
  }
}