{
  "contractName": "MultiplePartyContract",
  "abi": [
    {
      "inputs": [],
      "payable": false,
      "stateMutability": "nonpayable",
      "type": "constructor"
    },
    {
      "anonymous": false,
      "inputs": [
        {
          "indexed": false,
          "internalType": "string",
          "name": "message",
          "type": "string"
        },
        {
          "indexed": false,
          "internalType": "bool",
          "name": "canceled",
          "type": "bool"
        },
        {
          "indexed": false,
          "internalType": "uint256",
          "name": "timestamp",
          "type": "uint256"
        }
      ],
      "name": "contractCanceled",
      "type": "event"
    },
    {
      "anonymous": false,
      "inputs": [
        {
          "indexed": false,
          "internalType": "string",
          "name": "message",
          "type": "string"
        },
        {
          "indexed": false,
          "internalType": "bool",
          "name": "complete",
          "type": "bool"
        },
        {
          "indexed": false,
          "internalType": "uint256",
          "name": "timestamp",
          "type": "uint256"
        }
      ],
      "name": "contractComplete",
      "type": "event"
    },
    {
      "anonymous": false,
      "inputs": [
        {
          "indexed": true,
          "internalType": "address",
          "name": "signatory",
          "type": "address"
        },
        {
          "indexed": false,
          "internalType": "bool",
          "name": "has_signed",
          "type": "bool"
        },
        {
          "indexed": false,
          "internalType": "uint256",
          "name": "timestamp",
          "type": "uint256"
        }
      ],
      "name": "signature",
      "type": "event"
    },
    {
      "payable": false,
      "stateMutability": "nonpayable",
      "type": "fallback"
    },
    {
      "constant": true,
      "inputs": [],
      "name": "STATE",
      "outputs": [
        {
          "internalType": "enum SignSafeContract.sign_safe_contract_state",
          "name": "",
          "type": "uint8"
        }
      ],
      "payable": false,
      "stateMutability": "view",
      "type": "function"
    },
    {
      "constant": false,
      "inputs": [
        {
          "internalType": "string",
          "name": "kontract",
          "type": "string"
        }
      ],
      "name": "confirmContract",
      "outputs": [
        {
          "internalType": "bool",
          "name": "",
          "type": "bool"
        }
      ],
      "payable": false,
      "stateMutability": "nonpayable",
      "type": "function"
    },
    {
      "constant": true,
      "inputs": [],
      "name": "contract_cancelled_date",
      "outputs": [
        {
          "internalType": "uint256",
          "name": "",
          "type": "uint256"
        }
      ],
      "payable": false,
      "stateMutability": "view",
      "type": "function"
    },
    {
      "constant": true,
      "inputs": [],
      "name": "contract_completed_date",
      "outputs": [
        {
          "internalType": "uint256",
          "name": "",
          "type": "uint256"
        }
      ],
      "payable": false,
      "stateMutability": "view",
      "type": "function"
    },
    {
      "constant": true,
      "inputs": [],
      "name": "creation_date",
      "outputs": [
        {
          "internalType": "uint256",
          "name": "",
          "type": "uint256"
        }
      ],
      "payable": false,
      "stateMutability": "view",
      "type": "function"
    },
    {
      "constant": false,
      "inputs": [],
      "name": "getContractHash",
      "outputs": [
        {
          "internalType": "uint256",
          "name": "",
          "type": "uint256"
        }
      ],
      "payable": false,
      "stateMutability": "nonpayable",
      "type": "function"
    },
    {
      "constant": false,
      "inputs": [
        {
          "internalType": "string",
          "name": "kontract",
          "type": "string"
        }
      ],
      "name": "hashContract",
      "outputs": [],
      "payable": false,
      "stateMutability": "nonpayable",
      "type": "function"
    },
    {
      "constant": true,
      "inputs": [
        {
          "internalType": "address",
          "name": "",
          "type": "address"
        }
      ],
      "name": "hashMatch",
      "outputs": [
        {
          "internalType": "bool",
          "name": "",
          "type": "bool"
        }
      ],
      "payable": false,
      "stateMutability": "view",
      "type": "function"
    },
    {
      "constant": false,
      "inputs": [],
      "name": "ownerCancelContract",
      "outputs": [],
      "payable": false,
      "stateMutability": "nonpayable",
      "type": "function"
    },
    {
      "constant": true,
      "inputs": [
        {
          "internalType": "address",
          "name": "",
          "type": "address"
        }
      ],
      "name": "signatories",
      "outputs": [
        {
          "internalType": "bool",
          "name": "",
          "type": "bool"
        }
      ],
      "payable": false,
      "stateMutability": "view",
      "type": "function"
    },
    {
      "constant": true,
      "inputs": [
        {
          "internalType": "address",
          "name": "",
          "type": "address"
        }
      ],
      "name": "signature_timestamps",
      "outputs": [
        {
          "internalType": "uint256",
          "name": "",
          "type": "uint256"
        }
      ],
      "payable": false,
      "stateMutability": "view",
      "type": "function"
    },
    {
      "constant": true,
      "inputs": [
        {
          "internalType": "address",
          "name": "",
          "type": "address"
        }
      ],
      "name": "who_has_signed",
      "outputs": [
        {
          "internalType": "bool",
          "name": "",
          "type": "bool"
        }
      ],
      "payable": false,
      "stateMutability": "view",
      "type": "function"
    },
    {
      "constant": false,
      "inputs": [
        {
          "internalType": "uint256",
          "name": "_numParties",
          "type": "uint256"
        }
      ],
      "name": "setNumberOfParties",
      "outputs": [],
      "payable": false,
      "stateMutability": "nonpayable",
      "type": "function"
    },
    {
      "constant": false,
      "inputs": [
        {
          "internalType": "address",
          "name": "_newSignatory",
          "type": "address"
        }
      ],
      "name": "addSignatory",
      "outputs": [],
      "payable": false,
      "stateMutability": "nonpayable",
      "type": "function"
    },
    {
      "constant": false,
      "inputs": [
        {
          "internalType": "address",
          "name": "_signatory",
          "type": "address"
        }
      ],
      "name": "deleteSignatory",
      "outputs": [],
      "payable": false,
      "stateMutability": "nonpayable",
      "type": "function"
    },
    {
      "constant": false,
      "inputs": [],
      "name": "contractReadyForSignatures",
      "outputs": [],
      "payable": false,
      "stateMutability": "nonpayable",
      "type": "function"
    },
    {
      "constant": false,
      "inputs": [],
      "name": "sign",
      "outputs": [],
      "payable": false,
      "stateMutability": "nonpayable",
      "type": "function"
    },
    {
      "constant": false,
      "inputs": [],
      "name": "cancelContract",
      "outputs": [],
      "payable": false,
      "stateMutability": "nonpayable",
      "type": "function"
    }
  ],
  "bytecode": "0x60806040526000600560006101000a81548160ff02191690831515021790555034801561002b57600080fd5b50336000806101000a81548173ffffffffffffffffffffffffffffffffffffffff021916908373ffffffffffffffffffffffffffffffffffffffff1602179055506000600a60006101000a81548160ff0219169083600381111561008b57fe5b02179055506000600c819055506000600d819055506000600b81905550426001819055506114f7806100be6000396000f3fe608060405234801561001057600080fd5b50600436106101165760003560e01c80636ab57407116100a2578063ad983cea11610071578063ad983cea146103c3578063b63fd73f1461041b578063c486456c146104ee578063ef1ab03c1461051a578063f1861bef1461057657610116565b80636ab57407146102e35780637932f372146102ed5780638a12177f146103495780639c9b6736146103a557610116565b80632b68bb2d116100e95780632b68bb2d146101b25780632ca15122146101bc5780633778b09f146101c657806354e2ecf0146102815780636a2f7d7e1461029f57610116565b80630770e238146101185780631cc3868c146101365780631f7c75ed1461016457806321dd877f1461016e575b005b610120610594565b6040518082815260200191505060405180910390f35b6101626004803603602081101561014c57600080fd5b81019080803590602001909291905050506105be565b005b61016c610653565b005b6101b06004803603602081101561018457600080fd5b81019080803573ffffffffffffffffffffffffffffffffffffffff1690602001909291905050506107db565b005b6101ba61092b565b005b6101c4610ab6565b005b61027f600480360360208110156101dc57600080fd5b81019080803590602001906401000000008111156101f957600080fd5b82018360208201111561020b57600080fd5b8035906020019184600183028401116401000000008311171561022d57600080fd5b91908080601f016020809104026020016040519081016040528093929190818152602001838380828437600081840152601f19601f820116905080830192505050505050509192919290505050610d1f565b005b610289610e43565b6040518082815260200191505060405180910390f35b6102e1600480360360208110156102b557600080fd5b81019080803573ffffffffffffffffffffffffffffffffffffffff169060200190929190505050610e49565b005b6102eb610f88565b005b61032f6004803603602081101561030357600080fd5b81019080803573ffffffffffffffffffffffffffffffffffffffff169060200190929190505050611079565b604051808215151515815260200191505060405180910390f35b61038b6004803603602081101561035f57600080fd5b81019080803573ffffffffffffffffffffffffffffffffffffffff169060200190929190505050611099565b604051808215151515815260200191505060405180910390f35b6103ad6110b9565b6040518082815260200191505060405180910390f35b610405600480360360208110156103d957600080fd5b81019080803573ffffffffffffffffffffffffffffffffffffffff1690602001909291905050506110bf565b6040518082815260200191505060405180910390f35b6104d46004803603602081101561043157600080fd5b810190808035906020019064010000000081111561044e57600080fd5b82018360208201111561046057600080fd5b8035906020019184600183028401116401000000008311171561048257600080fd5b91908080601f016020809104026020016040519081016040528093929190818152602001838380828437600081840152601f19601f8201169050808301925050505050505091929192905050506110d7565b604051808215151515815260200191505060405180910390f35b6104f66112d0565b6040518082600381111561050657fe5b60ff16815260200191505060405180910390f35b61055c6004803603602081101561053057600080fd5b81019080803573ffffffffffffffffffffffffffffffffffffffff1690602001909291905050506112e3565b604051808215151515815260200191505060405180910390f35b61057e611303565b6040518082815260200191505060405180910390f35b600060011515600560009054906101000a900460ff161515146105b657600080fd5b600454905090565b600060038111156105cb57fe5b600a60009054906101000a900460ff1660038111156105e657fe5b146105f057600080fd5b6000809054906101000a900473ffffffffffffffffffffffffffffffffffffffff1673ffffffffffffffffffffffffffffffffffffffff163373ffffffffffffffffffffffffffffffffffffffff161461064957600080fd5b80600b8190555050565b6000809054906101000a900473ffffffffffffffffffffffffffffffffffffffff1673ffffffffffffffffffffffffffffffffffffffff163373ffffffffffffffffffffffffffffffffffffffff16146106ac57600080fd5b600260038111156106b957fe5b600a60009054906101000a900460ff1660038111156106d457fe5b14156106df57600080fd5b6003600a60006101000a81548160ff021916908360038111156106fe57fe5b02179055504260038190555060606040518060600160405280602f815260200161146a602f913990507f1a4dadf9792f72a969304169795e22020c43640fc479e3026d04822e7f93feda81600142604051808060200184151515158152602001838152602001828103825285818151815260200191508051906020019080838360005b8381101561079c578082015181840152602081019050610781565b50505050905090810190601f1680156107c95780820380516001836020036101000a031916815260200191505b5094505050505060405180910390a150565b600060038111156107e857fe5b600a60009054906101000a900460ff16600381111561080357fe5b1461080d57600080fd5b6000809054906101000a900473ffffffffffffffffffffffffffffffffffffffff1673ffffffffffffffffffffffffffffffffffffffff163373ffffffffffffffffffffffffffffffffffffffff161461086657600080fd5b600d600081548092919060010191905055506000600660008373ffffffffffffffffffffffffffffffffffffffff1673ffffffffffffffffffffffffffffffffffffffff16815260200190815260200160002060006101000a81548160ff0219169083151502179055506001600760008373ffffffffffffffffffffffffffffffffffffffff1673ffffffffffffffffffffffffffffffffffffffff16815260200190815260200160002060006101000a81548160ff02191690831515021790555050565b6001600381111561093857fe5b600a60009054906101000a900460ff16600381111561095357fe5b1461095d57600080fd5b60011515600760003373ffffffffffffffffffffffffffffffffffffffff1673ffffffffffffffffffffffffffffffffffffffff16815260200190815260200160002060009054906101000a900460ff161515146109ba57600080fd5b6003600a60006101000a81548160ff021916908360038111156109d957fe5b02179055504260038190555060606040518060600160405280603281526020016114386032913990507f1a4dadf9792f72a969304169795e22020c43640fc479e3026d04822e7f93feda81600142604051808060200184151515158152602001838152602001828103825285818151815260200191508051906020019080838360005b83811015610a77578082015181840152602081019050610a5c565b50505050905090810190601f168015610aa45780820380516001836020036101000a031916815260200191505b5094505050505060405180910390a150565b60016003811115610ac357fe5b600a60009054906101000a900460ff166003811115610ade57fe5b14610ae857600080fd5b60001515600660003373ffffffffffffffffffffffffffffffffffffffff1673ffffffffffffffffffffffffffffffffffffffff16815260200190815260200160002060009054906101000a900460ff16151514610b4557600080fd5b60011515600760003373ffffffffffffffffffffffffffffffffffffffff1673ffffffffffffffffffffffffffffffffffffffff16815260200190815260200160002060009054906101000a900460ff16151514610ba257600080fd5b60011515600860003373ffffffffffffffffffffffffffffffffffffffff1673ffffffffffffffffffffffffffffffffffffffff16815260200190815260200160002060009054906101000a900460ff16151514610bff57600080fd5b600c600081548092919060010191905055506001600660003373ffffffffffffffffffffffffffffffffffffffff1673ffffffffffffffffffffffffffffffffffffffff16815260200190815260200160002060006101000a81548160ff02191690831515021790555042600960003373ffffffffffffffffffffffffffffffffffffffff1673ffffffffffffffffffffffffffffffffffffffff168152602001908152602001600020819055503373ffffffffffffffffffffffffffffffffffffffff167f978d3a1fdb2369911f4fe03bf8010e5e585403ad9d5b936ace259bb5c9cd855f60014260405180831515151581526020018281526020019250505060405180910390a2600b54600c541415610d1d57610d1c611309565b5b565b6000809054906101000a900473ffffffffffffffffffffffffffffffffffffffff1673ffffffffffffffffffffffffffffffffffffffff163373ffffffffffffffffffffffffffffffffffffffff1614610d7857600080fd5b60006003811115610d8557fe5b600a60009054906101000a900460ff166003811115610da057fe5b14610daa57600080fd5b806040516020018082805190602001908083835b60208310610de15780518252602082019150602081019050602083039250610dbe565b6001836020036101000a0380198251168184511680821785525050505050509050019150506040516020818303038152906040528051906020012060001c6004819055506001600560006101000a81548160ff02191690831515021790555050565b60015481565b60006003811115610e5657fe5b600a60009054906101000a900460ff166003811115610e7157fe5b14610e7b57600080fd5b6000809054906101000a900473ffffffffffffffffffffffffffffffffffffffff1673ffffffffffffffffffffffffffffffffffffffff163373ffffffffffffffffffffffffffffffffffffffff1614610ed457600080fd5b600d6000815480929190600190039190505550600660008273ffffffffffffffffffffffffffffffffffffffff1673ffffffffffffffffffffffffffffffffffffffff16815260200190815260200160002060006101000a81549060ff0219169055600760008273ffffffffffffffffffffffffffffffffffffffff1673ffffffffffffffffffffffffffffffffffffffff16815260200190815260200160002060006101000a81549060ff021916905550565b60006003811115610f9557fe5b600a60009054906101000a900460ff166003811115610fb057fe5b14610fba57600080fd5b6000809054906101000a900473ffffffffffffffffffffffffffffffffffffffff1673ffffffffffffffffffffffffffffffffffffffff163373ffffffffffffffffffffffffffffffffffffffff161461101357600080fd5b6002600b54101561102357600080fd5b600d54600b541461103357600080fd5b60011515600560009054906101000a900460ff1615151461105357600080fd5b6001600a60006101000a81548160ff0219169083600381111561107257fe5b0217905550565b60076020528060005260406000206000915054906101000a900460ff1681565b60066020528060005260406000206000915054906101000a900460ff1681565b60035481565b60096020528060005260406000206000915090505481565b600060011515600560009054906101000a900460ff161515146110f957600080fd5b6001600381111561110657fe5b600a60009054906101000a900460ff16600381111561112157fe5b1461112b57600080fd5b60011515600760003373ffffffffffffffffffffffffffffffffffffffff1673ffffffffffffffffffffffffffffffffffffffff16815260200190815260200160002060009054906101000a900460ff1615151461118857600080fd5b6000826040516020018082805190602001908083835b602083106111c1578051825260208201915060208101905060208303925061119e565b6001836020036101000a0380198251168184511680821785525050505050509050019150506040516020818303038152906040528051906020012060001c905060045481141561126d576001600860003373ffffffffffffffffffffffffffffffffffffffff1673ffffffffffffffffffffffffffffffffffffffff16815260200190815260200160002060006101000a81548160ff02191690831515021790555060019150506112cb565b6000600860003373ffffffffffffffffffffffffffffffffffffffff1673ffffffffffffffffffffffffffffffffffffffff16815260200190815260200160002060006101000a81548160ff02191690831515021790555060009150505b919050565b600a60009054906101000a900460ff1681565b60086020528060005260406000206000915054906101000a900460ff1681565b60025481565b6001600381111561131657fe5b600a60009054906101000a900460ff16600381111561133157fe5b1461133b57600080fd5b6002600a60006101000a81548160ff0219169083600381111561135a57fe5b02179055504260028190555060606040518060600160405280602a8152602001611499602a913990507f84e69caf7216c089dd21cf216d9d3ee22f5101956624885502a58927d8697a3881600142604051808060200184151515158152602001838152602001828103825285818151815260200191508051906020019080838360005b838110156113f85780820151818401526020810190506113dd565b50505050905090810190601f1680156114255780820380516001836020036101000a031916815260200191505b5094505050505060405180910390a15056fe4f6e65206f6620746865207369676e61746f72696573206861732072656a65637465642074686520636f6e74726163742e2054686520636f6e7472616374206f776e6572206861732063616e63656c6c65642074686520636f6e74726163742e20416c6c207369676e61746f726965732068617665207369676e65642074686520636f6e74726163742e20a265627a7a723158201dc13799b30d76307f70fab8624cda96f054303c22fabf50893cb325a0d1caad64736f6c63430005100032",
  "source": "pragma solidity ^0.5.16;\n\nimport \"./SignSafeContract.sol\";\n\ncontract MultiplePartyContract is SignSafeContract{\n\n    function () external {}\n\n    uint256 internal numberOfParties;\n    uint256 private numberOfSignatures;\n    uint256 private numberOfSignatoriesAdded;\n\n    modifier all_signatories_added(){\n        require(numberOfParties >= 2);\n        require(numberOfParties == numberOfSignatoriesAdded);\n        _;\n    }\n\n    constructor () public{\n        contract_owner = msg.sender;\n        STATE = sign_safe_contract_state.SETUP;\n        numberOfSignatures = 0;\n        numberOfSignatoriesAdded = 0;\n        numberOfParties = 0;\n        creation_date = now;\n    }\n\n    function setNumberOfParties(uint _numParties) only_SETUP only_owner public {\n        numberOfParties = _numParties;\n    }\n\n    function addSignatory(address _newSignatory) only_SETUP only_owner public {\n        numberOfSignatoriesAdded++;\n        who_has_signed[_newSignatory] = false;\n        signatories[_newSignatory] = true;\n    }\n\n    function deleteSignatory(address _signatory) only_SETUP only_owner public {\n        numberOfSignatoriesAdded--;\n        delete who_has_signed[_signatory];\n        delete signatories[_signatory];\n    }\n\n    function contractReadyForSignatures() only_SETUP only_owner all_signatories_added only_contract_uploaded public {\n        STATE = sign_safe_contract_state.PENDING;\n    }\n\n    function sign() only_PENDING only_unsigned_signatories only_signatories only_hash_match public {\n        numberOfSignatures++;\n        who_has_signed[msg.sender] = true;\n        signature_timestamps[msg.sender] = now;\n        emit signature(msg.sender, true, now);\n        if(numberOfSignatures == numberOfParties){\n            completeContract();\n        }\n    }\n\n    function completeContract() only_PENDING private {\n        STATE = sign_safe_contract_state.COMPLETED;\n        contract_completed_date = now;\n        string memory emit_message = \"All signatories have signed the contract. \";\n        emit contractComplete(emit_message, true, now);\n    }\n\n    function cancelContract() only_PENDING only_signatories public {\n        STATE = sign_safe_contract_state.CANCELLED;\n        contract_cancelled_date = now;\n        string memory emit_message = \"One of the signatories has rejected the contract. \";\n        emit contractCanceled(emit_message, true, now);\n    }\n\n\n}\n\n\n\n",
  "sourcePath": "/Users/jared/Documents/CS481/TermProject/Draft-6/contracts/MultiplePartyContract.sol",
  "compiler": {
    "name": "solc",
    "version": "0.5.16+commit.9c3226ce.Emscripten.clang"
  },
  "schemaVersion": "3.0.23",
  "updatedAt": "2020-04-26T19:36:38.543Z",
  "networkType": "ethereum",
  "devdoc": {
    "methods": {}
  },
  "userdoc": {
    "methods": {}
  }
}