{
  "contractName": "SignSafeContract",
  "abi": [
    {
      "anonymous": false,
      "inputs": [
        {
          "indexed": false,
          "internalType": "string",
          "name": "message",
          "type": "string"
        },
        {
          "indexed": false,
          "internalType": "bool",
          "name": "canceled",
          "type": "bool"
        },
        {
          "indexed": false,
          "internalType": "uint256",
          "name": "timestamp",
          "type": "uint256"
        }
      ],
      "name": "contractCanceled",
      "type": "event"
    },
    {
      "anonymous": false,
      "inputs": [
        {
          "indexed": false,
          "internalType": "string",
          "name": "message",
          "type": "string"
        },
        {
          "indexed": false,
          "internalType": "bool",
          "name": "complete",
          "type": "bool"
        },
        {
          "indexed": false,
          "internalType": "uint256",
          "name": "timestamp",
          "type": "uint256"
        }
      ],
      "name": "contractComplete",
      "type": "event"
    },
    {
      "anonymous": false,
      "inputs": [
        {
          "indexed": true,
          "internalType": "address",
          "name": "signatory",
          "type": "address"
        },
        {
          "indexed": false,
          "internalType": "bool",
          "name": "has_signed",
          "type": "bool"
        },
        {
          "indexed": false,
          "internalType": "uint256",
          "name": "timestamp",
          "type": "uint256"
        }
      ],
      "name": "signature",
      "type": "event"
    },
    {
      "constant": true,
      "inputs": [],
      "name": "STATE",
      "outputs": [
        {
          "internalType": "enum SignSafeContract.sign_safe_contract_state",
          "name": "",
          "type": "uint8"
        }
      ],
      "payable": false,
      "stateMutability": "view",
      "type": "function"
    },
    {
      "constant": true,
      "inputs": [],
      "name": "contract_cancelled_date",
      "outputs": [
        {
          "internalType": "uint256",
          "name": "",
          "type": "uint256"
        }
      ],
      "payable": false,
      "stateMutability": "view",
      "type": "function"
    },
    {
      "constant": true,
      "inputs": [],
      "name": "contract_completed_date",
      "outputs": [
        {
          "internalType": "uint256",
          "name": "",
          "type": "uint256"
        }
      ],
      "payable": false,
      "stateMutability": "view",
      "type": "function"
    },
    {
      "constant": true,
      "inputs": [],
      "name": "creation_date",
      "outputs": [
        {
          "internalType": "uint256",
          "name": "",
          "type": "uint256"
        }
      ],
      "payable": false,
      "stateMutability": "view",
      "type": "function"
    },
    {
      "constant": true,
      "inputs": [
        {
          "internalType": "address",
          "name": "",
          "type": "address"
        }
      ],
      "name": "hashMatch",
      "outputs": [
        {
          "internalType": "bool",
          "name": "",
          "type": "bool"
        }
      ],
      "payable": false,
      "stateMutability": "view",
      "type": "function"
    },
    {
      "constant": true,
      "inputs": [
        {
          "internalType": "address",
          "name": "",
          "type": "address"
        }
      ],
      "name": "signatories",
      "outputs": [
        {
          "internalType": "bool",
          "name": "",
          "type": "bool"
        }
      ],
      "payable": false,
      "stateMutability": "view",
      "type": "function"
    },
    {
      "constant": true,
      "inputs": [
        {
          "internalType": "address",
          "name": "",
          "type": "address"
        }
      ],
      "name": "signature_timestamps",
      "outputs": [
        {
          "internalType": "uint256",
          "name": "",
          "type": "uint256"
        }
      ],
      "payable": false,
      "stateMutability": "view",
      "type": "function"
    },
    {
      "constant": true,
      "inputs": [
        {
          "internalType": "address",
          "name": "",
          "type": "address"
        }
      ],
      "name": "who_has_signed",
      "outputs": [
        {
          "internalType": "bool",
          "name": "",
          "type": "bool"
        }
      ],
      "payable": false,
      "stateMutability": "view",
      "type": "function"
    },
    {
      "constant": false,
      "inputs": [
        {
          "internalType": "string",
          "name": "kontract",
          "type": "string"
        }
      ],
      "name": "hashContract",
      "outputs": [],
      "payable": false,
      "stateMutability": "nonpayable",
      "type": "function"
    },
    {
      "constant": false,
      "inputs": [
        {
          "internalType": "string",
          "name": "kontract",
          "type": "string"
        }
      ],
      "name": "confirmContract",
      "outputs": [
        {
          "internalType": "bool",
          "name": "",
          "type": "bool"
        }
      ],
      "payable": false,
      "stateMutability": "nonpayable",
      "type": "function"
    },
    {
      "constant": false,
      "inputs": [],
      "name": "getContractHash",
      "outputs": [
        {
          "internalType": "uint256",
          "name": "",
          "type": "uint256"
        }
      ],
      "payable": false,
      "stateMutability": "nonpayable",
      "type": "function"
    },
    {
      "constant": false,
      "inputs": [],
      "name": "ownerCancelContract",
      "outputs": [],
      "payable": false,
      "stateMutability": "nonpayable",
      "type": "function"
    }
  ],
  "bytecode": "0x60806040526000600560006101000a81548160ff02191690831515021790555034801561002b57600080fd5b50610a318061003b6000396000f3fe608060405234801561001057600080fd5b50600436106100b45760003560e01c80639c9b6736116100715780639c9b673614610272578063ad983cea14610290578063b63fd73f146102e8578063c486456c146103bb578063ef1ab03c146103e7578063f1861bef14610443576100b4565b80630770e238146100b95780631f7c75ed146100d75780633778b09f146100e157806354e2ecf01461019c5780637932f372146101ba5780638a12177f14610216575b600080fd5b6100c1610461565b6040518082815260200191505060405180910390f35b6100df61048b565b005b61019a600480360360208110156100f757600080fd5b810190808035906020019064010000000081111561011457600080fd5b82018360208201111561012657600080fd5b8035906020019184600183028401116401000000008311171561014857600080fd5b91908080601f016020809104026020016040519081016040528093929190818152602001838380828437600081840152601f19601f820116905080830192505050505050509192919290505050610613565b005b6101a4610737565b6040518082815260200191505060405180910390f35b6101fc600480360360208110156101d057600080fd5b81019080803573ffffffffffffffffffffffffffffffffffffffff16906020019092919050505061073d565b604051808215151515815260200191505060405180910390f35b6102586004803603602081101561022c57600080fd5b81019080803573ffffffffffffffffffffffffffffffffffffffff16906020019092919050505061075d565b604051808215151515815260200191505060405180910390f35b61027a61077d565b6040518082815260200191505060405180910390f35b6102d2600480360360208110156102a657600080fd5b81019080803573ffffffffffffffffffffffffffffffffffffffff169060200190929190505050610783565b6040518082815260200191505060405180910390f35b6103a1600480360360208110156102fe57600080fd5b810190808035906020019064010000000081111561031b57600080fd5b82018360208201111561032d57600080fd5b8035906020019184600183028401116401000000008311171561034f57600080fd5b91908080601f016020809104026020016040519081016040528093929190818152602001838380828437600081840152601f19601f82011690508083019250505050505050919291929050505061079b565b604051808215151515815260200191505060405180910390f35b6103c3610994565b604051808260038111156103d357fe5b60ff16815260200191505060405180910390f35b610429600480360360208110156103fd57600080fd5b81019080803573ffffffffffffffffffffffffffffffffffffffff1690602001909291905050506109a7565b604051808215151515815260200191505060405180910390f35b61044b6109c7565b6040518082815260200191505060405180910390f35b600060011515600560009054906101000a900460ff1615151461048357600080fd5b600454905090565b6000809054906101000a900473ffffffffffffffffffffffffffffffffffffffff1673ffffffffffffffffffffffffffffffffffffffff163373ffffffffffffffffffffffffffffffffffffffff16146104e457600080fd5b600260038111156104f157fe5b600a60009054906101000a900460ff16600381111561050c57fe5b141561051757600080fd5b6003600a60006101000a81548160ff0219169083600381111561053657fe5b02179055504260038190555060606040518060600160405280602f81526020016109ce602f913990507f1a4dadf9792f72a969304169795e22020c43640fc479e3026d04822e7f93feda81600142604051808060200184151515158152602001838152602001828103825285818151815260200191508051906020019080838360005b838110156105d45780820151818401526020810190506105b9565b50505050905090810190601f1680156106015780820380516001836020036101000a031916815260200191505b5094505050505060405180910390a150565b6000809054906101000a900473ffffffffffffffffffffffffffffffffffffffff1673ffffffffffffffffffffffffffffffffffffffff163373ffffffffffffffffffffffffffffffffffffffff161461066c57600080fd5b6000600381111561067957fe5b600a60009054906101000a900460ff16600381111561069457fe5b1461069e57600080fd5b806040516020018082805190602001908083835b602083106106d557805182526020820191506020810190506020830392506106b2565b6001836020036101000a0380198251168184511680821785525050505050509050019150506040516020818303038152906040528051906020012060001c6004819055506001600560006101000a81548160ff02191690831515021790555050565b60015481565b60076020528060005260406000206000915054906101000a900460ff1681565b60066020528060005260406000206000915054906101000a900460ff1681565b60035481565b60096020528060005260406000206000915090505481565b600060011515600560009054906101000a900460ff161515146107bd57600080fd5b600160038111156107ca57fe5b600a60009054906101000a900460ff1660038111156107e557fe5b146107ef57600080fd5b60011515600760003373ffffffffffffffffffffffffffffffffffffffff1673ffffffffffffffffffffffffffffffffffffffff16815260200190815260200160002060009054906101000a900460ff1615151461084c57600080fd5b6000826040516020018082805190602001908083835b602083106108855780518252602082019150602081019050602083039250610862565b6001836020036101000a0380198251168184511680821785525050505050509050019150506040516020818303038152906040528051906020012060001c9050600454811415610931576001600860003373ffffffffffffffffffffffffffffffffffffffff1673ffffffffffffffffffffffffffffffffffffffff16815260200190815260200160002060006101000a81548160ff021916908315150217905550600191505061098f565b6000600860003373ffffffffffffffffffffffffffffffffffffffff1673ffffffffffffffffffffffffffffffffffffffff16815260200190815260200160002060006101000a81548160ff02191690831515021790555060009150505b919050565b600a60009054906101000a900460ff1681565b60086020528060005260406000206000915054906101000a900460ff1681565b6002548156fe54686520636f6e7472616374206f776e6572206861732063616e63656c6c65642074686520636f6e74726163742e20a265627a7a72315820112de1efc7cc809847f2a222687f29fea35aba24f4b532ac700518b3eda5fae364736f6c63430005100032",
  "source": "pragma solidity ^0.5.16;\n\ncontract SignSafeContract{\n\n    address internal contract_owner;\n    uint256 public creation_date;\n    uint256 public contract_completed_date;\n    uint256 public contract_cancelled_date;\n    uint internal contractHash;\n    bool internal contractUploaded = false;\n\n\n    enum sign_safe_contract_state{\n        SETUP, PENDING, COMPLETED, CANCELLED\n    }\n\n    mapping(address => bool) public who_has_signed;\n    mapping(address => bool) public signatories;\n    mapping(address => bool) public hashMatch;\n    mapping(address => uint) public signature_timestamps;\n\n    sign_safe_contract_state public STATE;\n\n    modifier only_owner(){\n        require(msg.sender == contract_owner);\n        _;\n    }\n\n    modifier only_signatories(){\n        require(signatories[msg.sender] == true);\n        _;\n    }\n    modifier only_SETUP(){\n        require(STATE == sign_safe_contract_state.SETUP);\n        _;\n    }\n\n    modifier only_PENDING(){\n        require(STATE == sign_safe_contract_state.PENDING);\n        _;\n    }\n\n    modifier only_unsigned_signatories(){\n        require(who_has_signed[msg.sender] == false);\n        _;\n    }\n\n    modifier only_hash_match(){\n        require(hashMatch[msg.sender] == true);\n        _;\n    }\n\n    modifier only_contract_uploaded(){\n        require(contractUploaded == true);\n        _;\n    }\n\n    modifier has_signed(){\n        require(who_has_signed[msg.sender] == true);\n        _;\n    }\n\n\n\n    event contractComplete(string message, bool complete, uint timestamp);\n    event signature(address indexed signatory, bool has_signed, uint timestamp);\n    event contractCanceled(string message, bool canceled, uint timestamp);\n\n    function hashContract(string memory kontract) only_owner only_SETUP public {\n        contractHash = uint(keccak256(abi.encodePacked(kontract)));\n        contractUploaded = true;\n    }\n\n    function confirmContract(string memory kontract) only_contract_uploaded only_PENDING only_signatories public returns(bool) {\n        uint hash = uint(keccak256(abi.encodePacked(kontract)));\n        if(hash == contractHash){\n            hashMatch[msg.sender] = true;\n            return true;\n        }\n        else{\n            hashMatch[msg.sender] = false;\n            return false;\n        }\n    }\n\n    function getContractHash() only_contract_uploaded public returns(uint) {\n        return contractHash;\n    }\n\n    function ownerCancelContract() only_owner public {\n        require(STATE != sign_safe_contract_state.COMPLETED);\n        STATE = sign_safe_contract_state.CANCELLED;\n        contract_cancelled_date = now;\n        string memory emit_message = \"The contract owner has cancelled the contract. \";\n        emit contractCanceled(emit_message, true, now);\n    }\n\n}",
  "sourcePath": "/Users/jared/Documents/CS481/TermProject/Draft-6/contracts/SignSafeContract.sol",
  "compiler": {
    "name": "solc",
    "version": "0.5.16+commit.9c3226ce.Emscripten.clang"
  },
  "schemaVersion": "3.0.23",
  "updatedAt": "2020-04-26T19:34:43.680Z",
  "devdoc": {
    "methods": {}
  },
  "userdoc": {
    "methods": {}
  }
}