{
  "contractName": "SignSafeContract",
  "abi": [
    {
      "anonymous": false,
      "inputs": [
        {
          "indexed": false,
          "internalType": "string",
          "name": "message",
          "type": "string"
        },
        {
          "indexed": false,
          "internalType": "bool",
          "name": "canceled",
          "type": "bool"
        },
        {
          "indexed": false,
          "internalType": "uint256",
          "name": "timestamp",
          "type": "uint256"
        }
      ],
      "name": "contractCanceled",
      "type": "event"
    },
    {
      "anonymous": false,
      "inputs": [
        {
          "indexed": false,
          "internalType": "string",
          "name": "message",
          "type": "string"
        },
        {
          "indexed": false,
          "internalType": "bool",
          "name": "complete",
          "type": "bool"
        },
        {
          "indexed": false,
          "internalType": "uint256",
          "name": "timestamp",
          "type": "uint256"
        }
      ],
      "name": "contractComplete",
      "type": "event"
    },
    {
      "anonymous": false,
      "inputs": [
        {
          "indexed": false,
          "internalType": "string",
          "name": "contractHash",
          "type": "string"
        },
        {
          "indexed": false,
          "internalType": "uint256",
          "name": "timestamp",
          "type": "uint256"
        }
      ],
      "name": "contractCreated",
      "type": "event"
    },
    {
      "anonymous": false,
      "inputs": [
        {
          "indexed": true,
          "internalType": "address",
          "name": "signatory",
          "type": "address"
        },
        {
          "indexed": false,
          "internalType": "bool",
          "name": "has_signed",
          "type": "bool"
        },
        {
          "indexed": false,
          "internalType": "uint256",
          "name": "timestamp",
          "type": "uint256"
        }
      ],
      "name": "signature",
      "type": "event"
    },
    {
      "constant": true,
      "inputs": [],
      "name": "STATE",
      "outputs": [
        {
          "internalType": "enum SignSafeContract.sign_safe_contract_state",
          "name": "",
          "type": "uint8"
        }
      ],
      "payable": false,
      "stateMutability": "view",
      "type": "function"
    },
    {
      "constant": true,
      "inputs": [],
      "name": "contract_cancelled_date",
      "outputs": [
        {
          "internalType": "uint256",
          "name": "",
          "type": "uint256"
        }
      ],
      "payable": false,
      "stateMutability": "view",
      "type": "function"
    },
    {
      "constant": true,
      "inputs": [],
      "name": "contract_completed_date",
      "outputs": [
        {
          "internalType": "uint256",
          "name": "",
          "type": "uint256"
        }
      ],
      "payable": false,
      "stateMutability": "view",
      "type": "function"
    },
    {
      "constant": true,
      "inputs": [],
      "name": "creation_date",
      "outputs": [
        {
          "internalType": "uint256",
          "name": "",
          "type": "uint256"
        }
      ],
      "payable": false,
      "stateMutability": "view",
      "type": "function"
    },
    {
      "constant": true,
      "inputs": [
        {
          "internalType": "address",
          "name": "",
          "type": "address"
        }
      ],
      "name": "hashMatch",
      "outputs": [
        {
          "internalType": "bool",
          "name": "",
          "type": "bool"
        }
      ],
      "payable": false,
      "stateMutability": "view",
      "type": "function"
    },
    {
      "constant": true,
      "inputs": [
        {
          "internalType": "address",
          "name": "",
          "type": "address"
        }
      ],
      "name": "signatories",
      "outputs": [
        {
          "internalType": "bool",
          "name": "",
          "type": "bool"
        }
      ],
      "payable": false,
      "stateMutability": "view",
      "type": "function"
    },
    {
      "constant": true,
      "inputs": [
        {
          "internalType": "address",
          "name": "",
          "type": "address"
        }
      ],
      "name": "signature_timestamps",
      "outputs": [
        {
          "internalType": "uint256",
          "name": "",
          "type": "uint256"
        }
      ],
      "payable": false,
      "stateMutability": "view",
      "type": "function"
    },
    {
      "constant": true,
      "inputs": [
        {
          "internalType": "address",
          "name": "",
          "type": "address"
        }
      ],
      "name": "who_has_signed",
      "outputs": [
        {
          "internalType": "bool",
          "name": "",
          "type": "bool"
        }
      ],
      "payable": false,
      "stateMutability": "view",
      "type": "function"
    },
    {
      "constant": false,
      "inputs": [
        {
          "internalType": "string",
          "name": "kontract",
          "type": "string"
        }
      ],
      "name": "confirmContract",
      "outputs": [
        {
          "internalType": "bool",
          "name": "",
          "type": "bool"
        }
      ],
      "payable": false,
      "stateMutability": "nonpayable",
      "type": "function"
    },
    {
      "constant": false,
      "inputs": [],
      "name": "getContractHash",
      "outputs": [
        {
          "internalType": "string",
          "name": "",
          "type": "string"
        }
      ],
      "payable": false,
      "stateMutability": "nonpayable",
      "type": "function"
    },
    {
      "constant": false,
      "inputs": [],
      "name": "ownerCancelContract",
      "outputs": [],
      "payable": false,
      "stateMutability": "nonpayable",
      "type": "function"
    }
  ],
  "bytecode": "0x60806040526000600560006101000a81548160ff02191690831515021790555034801561002b57600080fd5b506109b28061003b6000396000f3fe608060405234801561001057600080fd5b50600436106100a95760003560e01c80639c9b6736116100715780639c9b673614610211578063ad983cea1461022f578063b63fd73f14610287578063c486456c1461035a578063ef1ab03c14610386578063f1861bef146103e2576100a9565b80630770e238146100ae5780631f7c75ed1461013157806354e2ecf01461013b5780637932f372146101595780638a12177f146101b5575b600080fd5b6100b6610400565b6040518080602001828103825283818151815260200191508051906020019080838360005b838110156100f65780820151818401526020810190506100db565b50505050905090810190601f1680156101235780820380516001836020036101000a031916815260200191505b509250505060405180910390f35b6101396104c2565b005b61014361064a565b6040518082815260200191505060405180910390f35b61019b6004803603602081101561016f57600080fd5b81019080803573ffffffffffffffffffffffffffffffffffffffff169060200190929190505050610650565b604051808215151515815260200191505060405180910390f35b6101f7600480360360208110156101cb57600080fd5b81019080803573ffffffffffffffffffffffffffffffffffffffff169060200190929190505050610670565b604051808215151515815260200191505060405180910390f35b610219610690565b6040518082815260200191505060405180910390f35b6102716004803603602081101561024557600080fd5b81019080803573ffffffffffffffffffffffffffffffffffffffff169060200190929190505050610696565b6040518082815260200191505060405180910390f35b6103406004803603602081101561029d57600080fd5b81019080803590602001906401000000008111156102ba57600080fd5b8201836020820111156102cc57600080fd5b803590602001918460018302840111640100000000831117156102ee57600080fd5b91908080601f016020809104026020016040519081016040528093929190818152602001838380828437600081840152601f19601f8201169050808301925050505050505091929192905050506106ae565b604051808215151515815260200191505060405180910390f35b610362610915565b6040518082600381111561037257fe5b60ff16815260200191505060405180910390f35b6103c86004803603602081101561039c57600080fd5b81019080803573ffffffffffffffffffffffffffffffffffffffff169060200190929190505050610928565b604051808215151515815260200191505060405180910390f35b6103ea610948565b6040518082815260200191505060405180910390f35b606060011515600560009054906101000a900460ff1615151461042257600080fd5b60048054600181600116156101000203166002900480601f0160208091040260200160405190810160405280929190818152602001828054600181600116156101000203166002900480156104b85780601f1061048d576101008083540402835291602001916104b8565b820191906000526020600020905b81548152906001019060200180831161049b57829003601f168201915b5050505050905090565b6000809054906101000a900473ffffffffffffffffffffffffffffffffffffffff1673ffffffffffffffffffffffffffffffffffffffff163373ffffffffffffffffffffffffffffffffffffffff161461051b57600080fd5b6002600381111561052857fe5b600a60009054906101000a900460ff16600381111561054357fe5b141561054e57600080fd5b6003600a60006101000a81548160ff0219169083600381111561056d57fe5b02179055504260038190555060606040518060600160405280602f815260200161094f602f913990507f1a4dadf9792f72a969304169795e22020c43640fc479e3026d04822e7f93feda81600142604051808060200184151515158152602001838152602001828103825285818151815260200191508051906020019080838360005b8381101561060b5780820151818401526020810190506105f0565b50505050905090810190601f1680156106385780820380516001836020036101000a031916815260200191505b5094505050505060405180910390a150565b60015481565b60076020528060005260406000206000915054906101000a900460ff1681565b60066020528060005260406000206000915054906101000a900460ff1681565b60035481565b60096020528060005260406000206000915090505481565b600060011515600560009054906101000a900460ff161515146106d057600080fd5b600160038111156106dd57fe5b600a60009054906101000a900460ff1660038111156106f857fe5b1461070257600080fd5b60011515600760003373ffffffffffffffffffffffffffffffffffffffff1673ffffffffffffffffffffffffffffffffffffffff16815260200190815260200160002060009054906101000a900460ff1615151461075f57600080fd5b600460405160200180828054600181600116156101000203166002900480156107bf5780601f1061079d5761010080835404028352918201916107bf565b820191906000526020600020905b8154815290600101906020018083116107ab575b505091505060405160208183030381529060405280519060200120826040516020018082805190602001908083835b6020831061081157805182526020820191506020810190506020830392506107ee565b6001836020036101000a0380198251168184511680821785525050505050509050019150506040516020818303038152906040528051906020012014156108b3576001600860003373ffffffffffffffffffffffffffffffffffffffff1673ffffffffffffffffffffffffffffffffffffffff16815260200190815260200160002060006101000a81548160ff02191690831515021790555060019050610910565b6000600860003373ffffffffffffffffffffffffffffffffffffffff1673ffffffffffffffffffffffffffffffffffffffff16815260200190815260200160002060006101000a81548160ff021916908315150217905550600090505b919050565b600a60009054906101000a900460ff1681565b60086020528060005260406000206000915054906101000a900460ff1681565b6002548156fe54686520636f6e7472616374206f776e6572206861732063616e63656c6c65642074686520636f6e74726163742e20a265627a7a72315820becb636eb6176711a5d9704f667e9d569627846b45a36f63bb66204d8a60640c64736f6c63430005100032",
  "source": "pragma solidity ^0.5.16;\n\ncontract SignSafeContract{\n\n    address internal contract_owner;\n    uint256 public creation_date;\n    uint256 public contract_completed_date;\n    uint256 public contract_cancelled_date;\n    string internal contractHash;\n    bool internal contractUploaded = false;\n\n\n    enum sign_safe_contract_state{\n        SETUP, PENDING, COMPLETED, CANCELLED\n    }\n\n    mapping(address => bool) public who_has_signed;\n    mapping(address => bool) public signatories;\n    mapping(address => bool) public hashMatch;\n    mapping(address => uint) public signature_timestamps;\n\n    sign_safe_contract_state public STATE;\n\n    modifier only_owner(){\n        require(msg.sender == contract_owner);\n        _;\n    }\n\n    modifier only_signatories(){\n        require(signatories[msg.sender] == true);\n        _;\n    }\n    modifier only_SETUP(){\n        require(STATE == sign_safe_contract_state.SETUP);\n        _;\n    }\n\n    modifier only_PENDING(){\n        require(STATE == sign_safe_contract_state.PENDING);\n        _;\n    }\n\n    modifier only_unsigned_signatories(){\n        require(who_has_signed[msg.sender] == false);\n        _;\n    }\n\n    modifier only_hash_match(){\n        require(hashMatch[msg.sender] == true);\n        _;\n    }\n\n    modifier only_contract_uploaded(){\n        require(contractUploaded == true);\n        _;\n    }\n\n    modifier has_signed(){\n        require(who_has_signed[msg.sender] == true);\n        _;\n    }\n\n\n    event contractCreated(string contractHash, uint timestamp);\n    event contractComplete(string message, bool complete, uint timestamp);\n    event signature(address indexed signatory, bool has_signed, uint timestamp);\n    event contractCanceled(string message, bool canceled, uint timestamp);\n    \n\n    function confirmContract(string memory kontract) only_contract_uploaded only_PENDING only_signatories public returns(bool) {\n        if(keccak256(abi.encodePacked((kontract))) == keccak256(abi.encodePacked((contractHash)))){\n            hashMatch[msg.sender] = true;\n            return true;\n        }\n        else{\n            hashMatch[msg.sender] = false;\n            return false;\n        }\n    }\n\n    function getContractHash() only_contract_uploaded public returns(string memory) {\n        return contractHash;\n    }\n\n    function ownerCancelContract() only_owner public {\n        require(STATE != sign_safe_contract_state.COMPLETED);\n        STATE = sign_safe_contract_state.CANCELLED;\n        contract_cancelled_date = now;\n        string memory emit_message = \"The contract owner has cancelled the contract. \";\n        emit contractCanceled(emit_message, true, now);\n    }\n\n}",
  "sourcePath": "/Users/jared/Documents/CS481/TermProject/SolidityCompile/contracts/SignSafeContract.sol",
  "compiler": {
    "name": "solc",
    "version": "0.5.16+commit.9c3226ce.Emscripten.clang"
  },
  "schemaVersion": "3.0.23",
  "updatedAt": "2020-04-28T21:03:13.235Z",
  "devdoc": {
    "methods": {}
  },
  "userdoc": {
    "methods": {}
  }
}